:020000040800F2
:1000000030080020C5020008210300082103000871
:10001000210300082103000821030008000000005C
:1000200000000000000000000000000021030008A4
:10003000210300080000000021030008210300083C
:100040002103000821030008210300082103000800
:1000500021030008210300082103000821030008F0
:1000600021030008210300082103000821030008E0
:1000700021030008210300082103000821030008D0
:1000800021030008210300082103000821030008C0
:1000900021030008210300082103000821030008B0
:1000A00021030008210300082103000821030008A0
:1000B0002103000879070008210300082103000834
:1000C0002103000821030008210300082103000880
:1000D0002103000821030008210300082103000870
:1000E0002103000821030008210300082103000860
:1000F0002103000821030008210300082103000850
:10010000210300082103000821030008210300083F
:10011000210300082103000821030008210300082F
:10012000210300082103000821030008210300081F
:10013000210300082103000821030008210300080F
:1001400021030008210300082103000821030008FF
:1001500021030008210300082103000821030008EF
:1001600021030008210300082103000821030008DF
:1001700021030008210300082103000821030008CF
:10018000210300082103000880B485B000AF786027
:1001900039600023FB600023BB60134B1B68FB60CE
:1001A00040F6FE727B6802FA03F3DB43FA68134001
:1001B000FB603B681A683B685B681A433B689B6856
:1001C0001A433B68DB681343BB60BA687B6802FA7A
:1001D00003F3FA681343FB60034AFB68136000BF34
:1001E0001437BD4680BC70470074004080B483B0B3
:1001F00000AF78600B46FB70FB78002B09D00C49F0
:100200000B4B1A6801207B6800FA03F313430B6061
:1002100009E00749064B1A6801207B6800FA03F3DE
:10022000DB4313400B6000BF0C37BD4680BC7047FA
:100230000074004080B483B000AF0346FB71FB79CB
:10024000002B06D0084A084B5B6843F00303536059
:1002500005E0054A044B5B6823F00303536000BFCD
:100260000C37BD4680BC70470074004080B485B038
:1002700000AF78600B467B8013463B800023FB6019
:100280000023BB607B68082B05D17B881A023B8862
:100290001343FB6004E07B881A043B881343FB6034
:1002A000074BBB607A68BB6813442033BB60BB68F4
:1002B000FA681A6000BF1437BD4680BC704700BFA3
:1002C0000074004080B582B000AF104B7B60104BD3
:1002D0003B6007E03B681A1D3A607A68111D79603F
:1002E00012681A603B680B4A9342F3D30A480B49E1
:1002F0004FF000028842B8BF40F8042BFADB00F050
:1003000013F800BF0837BD4680BD00BFD41F0008EA
:100310000000002000000020000000202C00002031
:1003200080B400AFFEE700BFB0B500AF00F046FDFF
:1003300000F07AF900F036FA00F0EAF941E1002322
:1003400001220221A84800F065FBA74800F02CFC20
:1003500000BF0221A44800F043FC0346012BF8D162
:100360001021A14800F056FC9F4800F02DFC0346E8
:10037000184601F0F1FB02469C4B1A609B4B1B6830
:10038000184601F07DF892A3D3E9002301F0CCF8E0
:1003900003460C461846214601F0D8FA0246934B14
:1003A0001A60924B1B68924A536000230122082175
:1003B0008D4800F02FFB8C4800F0F6FB00BF0221B7
:1003C000894800F00DFC0346012BF8D11021864826
:1003D00000F020FC844800F0F7FB0346184601F0CB
:1003E000BBFB0246834B1A60824B1B68824918464E
:1003F00001F0C6FD0346002B02D07E4B7E4A1A60F8
:100400007C4B1B687D49184601F0F4FA03461946F7
:10041000184601F0F1FA03461A46764B1A60754BFE
:100420001B68184601F02CF869A3D3E9002301F0FA
:100430007BF803460C461846214601F087FA02462F
:100440006C4B1A606B4B1B686D4A536002216D4800
:1004500000F07EFC0346002B05D1654B5B6883F002
:100460000043634A53600221674800F08BFC644BF1
:100470001A685F4B1B681946104601F0BBFA034629
:10048000184600F0FDFF54A3D3E9002301F04CF817
:1004900003460C4625461C46594B5A68544B5B682C
:1004A0001946104601F0A6FA0346184600F0E8FF88
:1004B0004BA3D3E9002301F037F802460B46204650
:1004C000294600F07FFE03460C4625461C464F4B4E
:1004D0001B68184600F0D4FF02460B46204629460A
:1004E00000F070FE03460C461846214601F02EFA35
:1004F0000246464B5A600221434800F051FC434BF0
:100500005B684349184601F03BFD0346002B03D0CE
:100510003E4B3F4A5A600BE03C4B5B683D491846F6
:1005200001F010FD0346002B02D0384B394A5A60C7
:10053000364B5B68354A1360314B5B68304A136059
:100540002B4B5B682A4A1360304B5B684FF000010D
:10055000184601F015FD0346002B15D02B4B5B68A8
:100560002D49184601F050FB0346184601F012FDD4
:1005700003469AB2294B1A80284B1B881A46002141
:100580000020FFF773FE16E0204B5B6883F000430A
:100590002349184601F038FB0346184601F0FAFCDF
:1005A00003469AB21D4B1A801C4B1B880022194629
:1005B0000020FFF75BFE0120FFF73CFE194B0022F5
:1005C0001A70184B1B78012B3FF4B9AEB6E600BF8A
:1005D000FF092E56D4604A3FB4C876BE9F1AFFBFAB
:1005E00077BE9F1A2FDD024000200140000000204E
:1005F000200000200400002000E07F4500E0FF44D0
:100600001000002000000240000C024018000020F2
:1006100000004040000040C000A0AA4408000020A4
:100620000060AA442800002080B58CB000AF0121F2
:10063000012000F0FDF80121022000F0F9F801216D
:100640004FF4807000F030F90121082000F0F0F83C
:100650000223BB62012387F82C30002387F82F3058
:1006600007F128031946264800F0E4FA0423BB6288
:10067000032387F82C30002387F82F3007F1280355
:100680001946204800F0D6FA0123BB62032387F8FD
:100690002C30002387F82F3007F1280319461A4819
:1006A00000F0C8FA00233B6000237B600023BB609E
:1006B0004FF47063FB603B46184600F067F9002377
:1006C0003B6101233B7501237B750023BB61002344
:1006D000FB6100233B62032387F8243007F11003FA
:1006E00019460A4800F0FEF80121084800F076F9A2
:1006F000064800F059FA00BF3037BD4680BD00BF44
:10070000000C0240000002400004024000200140B2
:1007100080B584B000AF0121022000F0A7F8532378
:10072000BB600023BB800023BB810023FB803B1DFB
:100730001946104800F04AFC1D233B7000237B70D3
:100740000023BB700123FB703B46184600F0DEFB24
:1007500001220121074800F0D1FC0021054800F0EA
:100760009FFC0121034800F0A9FC00BF1037BD46E3
:1007700080BD00BF0004004080B500AF01210748E4
:1007800000F0E0FC0346002B06D0054B01221A7056
:100790000121024800F000FD00BF80BD00040040C0
:1007A0002800002080B586B000AF01214FF0005036
:1007B00000F05CF80121012000F03AF810233B61C1
:1007C00003233B750023BB750023FB7507F1100362
:1007D0001946164800F02EFA20233B6103233B758F
:1007E0000023BB750023FB7507F1100319460F4862
:1007F00000F020FA3C233B600023FB6000237B6079
:100800003B4619460020FFF7BFFC3B461946102027
:10081000FFF7BAFC01210020FFF7E8FC01211020BE
:10082000FFF7E4FC00BF1837BD4680BD0000024062
:1008300080B483B000AF78600B46FB70FB78002B70
:1008400006D00949084B1A6B7B6813430B6306E01B
:100850000549054B1A6B7B68DB4313400B6300BFF4
:100860000C37BD4680BC70470038024080B483B06E
:1008700000AF78600B46FB70FB78002B06D009496F
:10088000084B1A6C7B6813430B6406E00549054B63
:100890001A6C7B68DB4313400B6400BF0C37BD460A
:1008A00080BC70470038024080B483B000AF7860ED
:1008B0000B46FB70FB78002B06D00949084B5A6C9D
:1008C0007B6813434B6406E00549054B5A6C7B6813
:1008D000DB4313404B6400BF0C37BD4680BC704700
:1008E0000038024080B485B000AF786039600023E2
:1008F000FB600023FB727B685B68FB60FB6823F096
:10090000407323F48073FB603B681B791A023B68D9
:100910001B681343FA681343FB607B68FA685A60EC
:100920007B689B68FB60FA68174B1340FB603B6871
:100930001A693B68DB681A433B689B681A433B684B
:100940005B795B001343FA681343FB607B68FA68CA
:100950009A607B68DB6AFB60FB6823F47003FB60D2
:100960003B681B7D013BDAB2FB7A1343FB72FB7AD7
:100970001B05FA681343FB607B68FA68DA6200BF04
:100980001437BD4680BC7047FDF7FFC080B485B00A
:1009900000AF78600023FB600E4B5B68FB60FA6879
:1009A0000D4B1340FB607B681A687B685B681A43D9
:1009B0007B689B681A437B68DB681343FA681343C0
:1009C000FB60044AFB68536000BF1437BD4680BC1F
:1009D000704700BF00230140E030FCFF80B483B0CB
:1009E00000AF78600B46FB70FB78002B06D07B686D
:1009F0009B6843F001027B689A6005E07B689B6816
:100A000023F001027B689A6000BF0C37BD4680BCB2
:100A1000704700BF80B485B000AF786008461146CB
:100A20001A460346FB700B46BB7013467B700023CF
:100A3000FB600023BB60FB78092B23D97B68DB6854
:100A4000FB60FB78A3F10A0213465B001344072204
:100A500002FA03F3BB60BB68DB43FA681340FB6038
:100A60007978FB78A3F10A0213465B00134401FA7C
:100A700003F3BB60FA68BB681343FB607B68FA68EA
:100A8000DA601EE07B681B69FB60FA7813465B0046
:100A90001344072202FA03F3BB60BB68DB43FA6826
:100AA0001340FB607978FA7813465B00134401FA2F
:100AB00003F3BB60FA68BB681343FB607B68FA68AA
:100AC0001A61BB78062B21D87B685B6BFB60BB7817
:100AD0005A1E13469B0013441F2202FA03F3BB6005
:100AE000BB68DB43FA681340FB60F978BB785A1E99
:100AF00013469B00134401FA03F3BB60FA68BB681A
:100B00001343FB607B68FA685A6347E0BB780C2BA1
:100B100021D87B681B6BFB60BB78DA1F13469B00F8
:100B200013441F2202FA03F3BB60BB68DB43FA687D
:100B30001340FB60F978BB78DA1F13469B0013441F
:100B400001FA03F3BB60FA68BB681343FB607B6880
:100B5000FA681A6322E07B68DB6AFB60BB78A3F16A
:100B60000D0213469B0013441F2202FA03F3BB60DD
:100B7000BB68DB43FA681340FB60F978BB78A3F1EC
:100B80000D0213469B00134401FA03F3BB60FA689D
:100B9000BB681343FB607B68FA68DA6200BF1437F6
:100BA000BD4680BC704700BF80B483B000AF7860A2
:100BB0007B689B6843F080427B689A6000BF0C377B
:100BC000BD4680BC704700BF80B483B000AF786082
:100BD0007B68DB6C9BB218460C37BD4680BC704707
:100BE00080B485B000AF78600B46FB700023FB73C8
:100BF0007B681A68FB781340002B02D00123FB733B
:100C000001E00023FB73FB7B18461437BD4680BC14
:100C1000704700BF80B483B000AF78600B46FB70B4
:100C2000FB78DA437B681A6000BF0C37BD4680BC96
:100C3000704700BF80B487B000AF78603960002390
:100C40007B6100233B610023FB6000237B6176E036
:100C500001227B6902FA03F33B613B681A683B6936
:100C60001340FB60FA683B699A4265D17B681A6859
:100C70007B695B00032101FA03F3DB431A407B68C5
:100C80001A607B681A683B681B7919467B695B00B0
:100C900001FA03F31A437B681A603B681B79012B46
:100CA00003D03B681B79022B2ED17B689A687B6945
:100CB0005B00032101FA03F3DB431A407B689A606F
:100CC0007B689A683B685B7919467B695B0001FA2F
:100CD00003F31A437B689A607B685A687B699BB20E
:100CE000012101FA03F3DB431A407B685A607B68F9
:100CF0005A683B689B7919467B699BB201FA03F3FA
:100D00009BB21A437B685A607B68DA687B699BB246
:100D10005B00032101FA03F3DB431A407B68DA60CE
:100D20007B68DA683B68DB7919467B695B0001FA0E
:100D300003F31A437B68DA607B6901337B617B696B
:100D40000F2B85D900BF1C37BD4680BC704700BF44
:100D500080B485B000AF78600B467B800023FB73C6
:100D60007B681A697B881340002B02D00123FB7338
:100D700001E00023FB73FB7B18461437BD4680BCA3
:100D8000704700BF80B483B000AF78600B467B80B3
:100D90007B687A881A8300BF0C37BD4680BC7047D9
:100DA00080B483B000AF78600B467B807B687A8824
:100DB0005A8300BF0C37BD4680BC704780B500AF7A
:100DC000124A124B1B6843F0010313600F4B0022C1
:100DD0009A600E4A0D4B1B6823F0847323F4803312
:100DE00013600A4B0A4A5A60084A084B1B6823F4EE
:100DF00080231360054B0022DA6000F00DF8054BEC
:100E00004FF000629A6000BF80BD00BF0038024012
:100E10001030002400ED00E080B483B000AF002368
:100E20007B6000233B60354A344B1B6843F48033BE
:100E30001360324B1B6803F400333B607B68013363
:100E40007B603B68002B03D17B68B3F5A06FF0D1CA
:100E50002A4B1B6803F40033002B02D001233B60B4
:100E600001E000233B603B68012B42D1234A234B26
:100E70001B6C43F080531364214A214B1B6843F4DD
:100E8000804313601D4A1D4B9B6893601B4A1B4B9C
:100E90009B6843F400439360184A184B9B6843F4E3
:100EA000A0539360154B174A5A60144A134B1B68A2
:100EB00043F08073136000BF104B1B6803F0007396
:100EC000002BF9D0104B40F205621A600B4A0B4B15
:100ED0009B6823F003039360084A084B9B6843F028
:100EE0000203936000BF054B9B6803F00C03082BC3
:100EF000F9D100BF0C37BD4680BC704700380240B6
:100F00000070004008544008003C024080B485B0A6
:100F100000AF78600023FB730023BB730F237B7348
:100F20007B68DB78002B38D0264BDB68DB4303F48F
:100F3000E0631B0AFB73FB7BC3F10403BB737A7B87
:100F4000FB7B42FA03F37B737B685B781A46BB7BBF
:100F500002FA03F3FB737B689A787B7B1340DAB267
:100F6000FB7B1343FB73FB7B1B01FB73164A7B6804
:100F70001B781344FA7B83F80023134A7B681B78A1
:100F80005B09DBB218467B681B7803F01F03012165
:100F900001FA03F342F820300FE00B497B681B781D
:100FA0005B09DBB218467B681B7803F01F03012244
:100FB0009A4000F1200341F8232000BF1437BD46BA
:100FC00080BC704700ED00E000E100E080B485B037
:100FD00000AF786039600023FB817B681B88FB8150
:100FE0007B68284A934213D07B68274A93420FD0EC
:100FF0007B68B3F1804F0BD07B68244A934207D0C3
:101000007B68234A934203D07B68224A934208D1EB
:10101000FB8923F07003FB813B685A88FB891343EB
:10102000FB817B681C4A93420CD07B681B4A93422D
:1010300008D0FB8923F44073FB813B681A89FB8944
:101040001343FB817B68FA891A803B685A687B6886
:10105000DA623B681A887B681A857B68094A934282
:1010600003D07B68084A934204D13B689B7A9AB2CA
:101070007B681A867B6801229A8200BF1437BD46BE
:1010800080BC7047000001400004014000040040A3
:1010900000080040000C0040001000400014004018
:1010A00080B483B000AF786039607B683A685A6278
:1010B00000BF0C37BD4680BC704700BF80B483B012
:1010C00000AF78600B46FB70FB78002B08D07B6884
:1010D0001B889BB243F001039AB27B681A8007E039
:1010E0007B681B889BB223F001039AB27B681A804D
:1010F00000BF0C37BD4680BC704700BF80B483B0D2
:1011000000AF78600B467B8013467B707B78002BAA
:1011100008D07B689B899AB27B8813439AB27B681C
:101120009A8109E07B689B899AB27B88DB439BB2FA
:1011300013409AB27B689A8100BF0C37BD4680BCD1
:10114000704700BF80B485B000AF78600B467B80ED
:101150000023FB730023BB8100237B817B681B8AF8
:101160009AB27B881340BB817B689B899AB27B884B
:1011700013407B81BB89002B05D07B89002B02D0DB
:101180000123FB7301E00023FB73FB7B184614373C
:10119000BD4680BC704700BF80B483B000AF7860AC
:1011A0000B467B807B88DB439AB27B681A8200BF48
:1011B0000C37BD4680BC704781F0004102E000BFA3
:1011C00083F0004330B54FEA41044FEA430594EA07
:1011D000050F08BF90EA020F1FBF54EA000C55EA42
:1011E000020C7FEA645C7FEA655C00F0E2804FEA13
:1011F0005454D4EB5555B8BF6D420CDD2C4480EAF5
:10120000020281EA030382EA000083EA010180EA24
:10121000020281EA0303362D88BF30BD11F0004F72
:101220004FEA01314FF4801C4CEA113102D04042A8
:1012300061EB410113F0004F4FEA03334CEA1333E3
:1012400002D0524263EB430394EA050F00F0A780FB
:10125000A4F10104D5F1200E0DDB02FA0EFC22FAF6
:1012600005F2801841F1000103FA0EF2801843FAEA
:1012700005F359410EE0A5F120050EF1200E012ADB
:1012800003FA0EFC28BF4CF0020C43FA05F3C01819
:1012900051EBE37101F0004507D54FF0000EDCF192
:1012A000000C7EEB00006EEB0101B1F5801F1BD33B
:1012B000B1F5001F0CD349085FEA30004FEA3C0C3F
:1012C00004F101044FEA445212F5800F80F09A8035
:1012D000BCF1004F08BF5FEA500C50F1000041EB39
:1012E000045141EA050130BD5FEA4C0C404141EB3D
:1012F000010111F4801FA4F10104E9D191F0000F64
:1013000004BF01460020B1FA81F308BF2033A3F1E6
:101310000B03B3F120020CDA0C3208DD02F1140CDD
:10132000C2F10C0201FA0CF021FA02F10CE002F118
:101330001402D8BFC2F1200C01FA02F120FA0CFC11
:10134000DCBF41EA0C019040E41AA2BF01EB04515A
:10135000294330BD6FEA04041F3C1CDA0C340EDC58
:1013600004F11404C4F1200220FA04F001FA02F39B
:1013700040EA030021FA04F345EA030130BDC4F159
:101380000C04C4F1200220FA02F001FA04F340EA4E
:101390000300294630BD21FA04F0294630BD94F0FF
:1013A000000F83F4801306BF81F480110134013DE6
:1013B0004EE77FEA645C18BF7FEA655C29D094EA57
:1013C000050F08BF90EA020F05D054EA000C04BFD5
:1013D0001946104630BD91EA030F1EBF00210020C0
:1013E00030BD5FEA545C05D14000494128BF41F05F
:1013F000004130BD14F580043CBF01F5801130BDC3
:1014000001F0004545F0FE4141F470014FF000004D
:1014100030BD7FEA645C1ABF194610467FEA655CFE
:101420001CBF0B46024650EA013406BF52EA0335A0
:1014300091EA030F41F4002130BD00BF90F0000F8E
:1014400004BF0021704730B54FF4806404F13204CA
:101450004FF000054FF0000150E700BF90F0000F83
:1014600004BF0021704730B54FF4806404F13204AA
:1014700010F0004548BF40424FF000013EE700BF7A
:1014800042004FEAE2014FEA31014FEA02701FBF0A
:1014900012F07F4393F07F4F81F06051704792F0DC
:1014A000000F14BF93F07F4F704730B54FF4607456
:1014B00001F0004521F0004120E700BF50EA0102A1
:1014C00008BF704730B54FF000050AE050EA01024E
:1014D00008BF704730B511F0004502D5404261EBBE
:1014E00041014FF4806404F132045FEA915C3FF4FF
:1014F000DCAE4FF003025FEADC0C18BF03325FEA98
:10150000DC0C18BF033202EBDC02C2F1200300FA4C
:1015100003FC20FA02F001FA03FE40EA0E0021FA71
:1015200002F11444C1E600BF70B54FF0FF0C4CF45B
:10153000E06C1CEA11541DBF1CEA135594EA0C0F11
:1015400095EA0C0F00F0DEF82C4481EA030621EA4C
:101550004C5123EA4C5350EA013518BF52EA033587
:1015600041F4801143F4801338D0A0FB02CE4FF039
:101570000005E1FB02E506F00042E0FB03E54FF069
:101580000006E1FB03569CF0000F18BF4EF0010E61
:10159000A4F1FF04B6F5007F64F5407404D25FEA5D
:1015A0004E0E6D4146EB060642EAC62141EA555110
:1015B0004FEAC52040EA5E504FEACE2EB4F1FD0C52
:1015C00088BFBCF5E06F1ED8BEF1004F08BF5FEAD0
:1015D000500E50F1000041EB045170BD06F0004682
:1015E00046EA010140EA020081EA0301B4EB5C042F
:1015F000C2BFD4EB0C0541EA045170BD41F4801127
:101600004FF0000E013C00F3AB8014F1360FDEBF4B
:10161000002001F0004170BDC4F10004203C35DA27
:101620000C341BDC04F11404C4F1200500FA05F3AA
:1016300020FA04F001FA05F240EA020001F000424B
:1016400021F0004110EBD37021FA04F642EB0601C1
:101650005EEA430E08BF20EAD37070BDC4F10C04EB
:10166000C4F1200500FA04F320FA05F001FA04F2AF
:1016700040EA020001F0004110EBD37041F100019B
:101680005EEA430E08BF20EAD37070BDC4F12005A6
:1016900000FA05F24EEA020E20FA04F301FA05F20E
:1016A00043EA020321FA04F001F0004121FA04F2B6
:1016B00020EA020000EBD3705EEA430E08BF20EA86
:1016C000D37070BD94F0000F0FD101F000464000C0
:1016D00041EB010111F4801F08BF013CF7D041EA42
:1016E000060195F0000F18BF704703F00046520046
:1016F00043EB030313F4801F08BF013DF7D043EA17
:101700000603704794EA0C0F0CEA135518BF95EACC
:101710000C0F0CD050EA410618BF52EA4306D1D153
:1017200081EA030101F000414FF0000070BD50EA72
:10173000410606BF1046194652EA430619D094EAFC
:101740000C0F02D150EA013613D195EA0C0F05D1E6
:1017500052EA03361CBF104619460AD181EA03013A
:1017600001F0004141F0FE4141F470014FF00000F2
:1017700070BD41F0FE4141F4780170BD70B54FF08D
:10178000FF0C4CF4E06C1CEA11541DBF1CEA13550D
:1017900094EA0C0F95EA0C0F00F0A7F8A4EB0504EF
:1017A00081EA030E52EA03354FEA013100F08880E6
:1017B0004FEA03334FF0805545EA131343EA1263AF
:1017C0004FEA022245EA111545EA10654FEA002664
:1017D0000EF000419D4208BF964244F1FD0404F51D
:1017E000407402D25B084FEA3202B61A65EB030579
:1017F0005B084FEA32024FF480104FF4002CB6EB36
:10180000020E75EB030E22BFB61A754640EA0C00B5
:101810005B084FEA3202B6EB020E75EB030E22BFF5
:10182000B61A754640EA5C005B084FEA3202B6EB36
:10183000020E75EB030E22BFB61A754640EA9C00F5
:101840005B084FEA3202B6EB020E75EB030E22BFC5
:10185000B61A754640EADC0055EA060E18D04FEA83
:10186000051545EA16754FEA06164FEAC30343EA23
:1018700052734FEAC2025FEA1C1CC0D111F4801FF0
:101880000BD141EA00014FF000004FF0004CB6E7E9
:1018900011F4801F04BF01430020B4F1FD0C88BF88
:1018A000BCF5E06F3FF6AFAEB5EB030C04BFB6EB93
:1018B000020C5FEA500C50F1000041EB045170BD86
:1018C0000EF0004E4EEA113114EB5C04C2BFD4EBB3
:1018D0000C0541EA045170BD41F480114FF0000E37
:1018E000013C90E645EA060E8DE60CEA135594EAB3
:1018F0000C0F08BF95EA0C0F3FF43BAF94EA0C0FB6
:101900000AD150EA01347FF434AF95EA0C0F7FF42A
:1019100025AF104619462CE795EA0C0F06D152EA7E
:1019200003353FF4FDAE1046194622E750EA410662
:1019300018BF52EA43067FF4C5AE50EA41047FF473
:101940000DAF52EA43057FF4EBAE12E74FEA4102D6
:10195000B2F1E04324BFB3F5001CDCF1FE5C0DD90D
:1019600001F0004C4FEAC0024CEA5070B2F1004F57
:1019700040EB830008BF20F00100704711F0804F5A
:1019800021D113F13872BCBF01F00040704741F41F
:1019900080114FEA5252C2F11802C2F1200C10FA23
:1019A0000CF320FA02F018BF40F001004FEAC12307
:1019B0004FEAD32303FA0CFC40EA0C0023FA02F3AB
:1019C0004FEA4303CCE77FEA625307D150EA013381
:1019D0001EBF4FF0FE4040F44000704701F0004051
:1019E00040F0FE4040F40000704700BF80F000402F
:1019F00002E000BF81F0004142001FBF5FEA4103E7
:101A000092EA030F7FEA226C7FEA236C6AD04FEAE6
:101A10001262D2EB1363C1BFD2184140484041402B
:101A2000B8BF5B42192B88BF704710F0004F40F4DD
:101A3000000020F07F4018BF404211F0004F41F4F9
:101A4000000121F07F4118BF494292EA030F3FD0C5
:101A5000A2F1010241FA03FC10EB0C00C3F12003D8
:101A600001FA03F100F0004302D5494260EB400067
:101A7000B0F5000F13D3B0F1807F06D340084FEAD2
:101A8000310102F10102FE2A51D2B1F1004F40EBC7
:101A9000C25008BF20F0010040EA0300704749002F
:101AA00040EB000010F4000FA2F10102EDD1B0FAFA
:101AB00080FCACF1080CB2EB0C0200FA0CF0AABFEF
:101AC00000EBC25052421843BCBFD040184370478D
:101AD00092F0000F81F4000106BF80F40000013293
:101AE000013BB5E74FEA41037FEA226C18BF7FEA6A
:101AF000236C21D092EA030F04D092F0000F08BFAC
:101B00000846704790EA010F1CBF0020704712F092
:101B10007F4F04D1400028BF40F00040704712F1D1
:101B200000723CBF00F50000704700F0004343F036
:101B3000FE4040F4000070477FEA226216BF08466C
:101B40007FEA23630146420206BF5FEA412390EA2F
:101B5000010F40F4800070474FF0000304E000BF25
:101B600010F0004348BF40425FEA000C08BF7047D6
:101B700043F0964301464FF000001CE050EA01029A
:101B800008BF70474FF000030AE000BF50EA0102AF
:101B900008BF704711F0004302D5404261EB41019C
:101BA0005FEA010C02BF84460146002043F0B643C1
:101BB00008BFA3F18053A3F50003BCFA8CF2083AE6
:101BC000A3EBC25310DB01FA02FC634400FA02FCEF
:101BD000C2F12002BCF1004F20FA02F243EB0200F6
:101BE00008BF20F00100704702F1200201FA02FC58
:101BF000C2F1200250EA4C0021FA02F243EB02004B
:101C000008BF20EADC7070474FF0FF0C1CEAD0528E
:101C10001EBF1CEAD15392EA0C0F93EA0C0F6FD04F
:101C20001A4480EA010C400218BF5FEA41211ED02D
:101C30004FF0006343EA501043EA5111A0FB013119
:101C40000CF00040B1F5000F3EBF490041EAD371EE
:101C50005B0040EA010062F17F02FD2A1DD8B3F16A
:101C6000004F40EBC25008BF20F00100704790F0D9
:101C7000000F0CF0004C08BF49024CEA502040EA2B
:101C800051207F3AC2BFD2F1FF0340EAC2507047F1
:101C900040F400004FF00003013A5DDC12F1190F2F
:101CA000DCBF00F000407047C2F10002410021FAA1
:101CB00002F1C2F1200200FA02FC5FEA310040F1B9
:101CC000000053EA4C0308BF20EADC70704792F032
:101CD000000F00F0004C02BF400010F4000F013A6A
:101CE000F9D040EA0C0093F0000F01F0004C02BF65
:101CF000490011F4000F013BF9D041EA0C018FE7D4
:101D00000CEAD15392EA0C0F18BF93EA0C0F0AD0D9
:101D100030F0004C18BF31F0004CD8D180EA0100FF
:101D200000F00040704790F0000F17BF90F0004F98
:101D3000084691F0000F91F0004F14D092EA0C0F7A
:101D400001D142020FD193EA0C0F03D14B0218BF0D
:101D5000084608D180EA010000F0004040F0FE4053
:101D600040F40000704740F0FE4040F440007047EF
:101D70004FF0FF0C1CEAD0521EBF1CEAD15392EA6E
:101D80000C0F93EA0C0F69D0A2EB030280EA010C5E
:101D900049024FEA402037D04FF0805343EA1111F7
:101DA00043EA10130CF000408B4238BF5B0042F155
:101DB0007D024FF4000C8B4224BF5B1A40EA0C00FA
:101DC000B3EB510F24BFA3EB510340EA5C00B3EB2C
:101DD000910F24BFA3EB910340EA9C00B3EBD10F1A
:101DE00024BFA3EBD10340EADC001B0118BF5FEA6C
:101DF0001C1CE0D1FD2A3FF650AF8B4240EBC25095
:101E000008BF20F0010070470CF0004C4CEA502055
:101E10007F32C2BFD2F1FF0340EAC250704740F4A4
:101E200000004FF00003013A37E792F0000F00F096
:101E3000004C02BF400010F4000F013AF9D040EA14
:101E40000C0093F0000F01F0004C02BF490011F4A8
:101E5000000F013BF9D041EA0C0195E70CEAD153A0
:101E600092EA0C0F08D142027FF47DAF93EA0C0F87
:101E70007FF470AF084676E793EA0C0F04D14B026B
:101E80003FF44CAF08466EE730F0004C18BF31F01D
:101E9000004CCAD130F000427FF45CAF31F0004317
:101EA0007FF43CAF5FE700BF4FF0FF3C06E000BFB0
:101EB0004FF0010C02E000BF4FF0010C4DF804CDD3
:101EC0004FEA40024FEA41037FEA226C18BF7FEAE3
:101ED000236C11D001B052EA530C18BF90EA010FE5
:101EE00058BFB2EB030088BFC81738BF6FEAE17074
:101EF00018BF40F0010070477FEA226C02D15FEA10
:101F0000402C05D17FEA236CE4D15FEA412CE1D07B
:101F10005DF8040B704700BF844608466146FFE742
:101F20000FB5FFF7C9FF002848BF10F1000F0FBD24
:101F30004DF808EDFFF7F4FF0CBF012000205DF81D
:101F400008FB00BF4DF808EDFFF7EAFF34BF0120A2
:101F500000205DF808FB00BF4DF808EDFFF7E0FF3B
:101F600094BF012000205DF808FB00BF4DF808ED8C
:101F7000FFF7D2FF94BF012000205DF808FB00BFEF
:101F80004DF808EDFFF7C8FF34BF012000205DF8D1
:101F900008FB00BF42000ED2B2F1FE4F0BD34FF050
:101FA0009E03B3EB126209D44FEA002343F00043CF
:101FB00023FA02F070474FF00000704712F1610FF2
:101FC00001D1420202D14FF0FF3070474FF00000C4
:041FD000704700BF97
:0400000508000000EF
:00000001FF
